MPLINK 4.20, Linker
Linker Map File - Created Thu Aug 04 12:50:43 2011

                                 Section Info
                  Section       Type    Address   Location Size(Bytes)
                ---------  ---------  ---------  ---------  ---------
               _entry_scn       code   0x000000    program   0x000006
                dataFLASH    romdata   0x007800    program   0x000400
                   .cinit    romdata   0x007c00    program   0x000002
            .code_flash.o       code   0x007c02    program   0x0001a8
             .code_Main.o       code   0x007daa    program   0x0000a0
               _cinit_scn       code   0x007e4a    program   0x00009e
             _startup_scn       code   0x007ee8    program   0x00001a
                    .code       code   0x007f02    program   0x00000e
           .code___init.o       code   0x007f10    program   0x000002
          .code_c018i_e.o       code   0x007f12    program   0x000000
          .idata_Main.o_i    romdata   0x007f12    program   0x000000
          .romdata_Main.o    romdata   0x007f12    program   0x000000
       .romdata_c018i_e.o    romdata   0x007f12    program   0x000000
         .idata_flash.o_i    romdata   0x007f12    program   0x000000
         .romdata_flash.o    romdata   0x007f12    program   0x000000
        .idata___init.o_i    romdata   0x007f12    program   0x000000
        .romdata___init.o    romdata   0x007f12    program   0x000000
       .idata_c018i_e.o_i    romdata   0x007f12    program   0x000000
         .udata_c018i_e.o      udata   0x000000       data   0x00000a
                 .tmpdata      udata   0x00000a       data   0x000000
         .idata_c018i_e.o      idata   0x00000a       data   0x000000
            .idata_Main.o      idata   0x00000a       data   0x000000
           .udata_flash.o      udata   0x00000a       data   0x000000
           .idata_flash.o      idata   0x00000a       data   0x000000
          .udata___init.o      udata   0x00000a       data   0x000000
          .idata___init.o      idata   0x00000a       data   0x000000
            .udata_Main.o      udata   0x000080       data   0x000080
                   .stack      udata   0x000300       data   0x000100
            SFR_UNBANKED0      udata   0x000f80       data   0x000080



                              Program Memory Usage 
                               Start         End      
                           ---------   ---------      
                            0x000000    0x000005      
                            0x007800    0x007f11      
            1816 out of 32768 program addresses used, program memory utilization is 5%



                              Symbols - Sorted by Name
                     Name    Address   Location    Storage File                     
                ---------  ---------  ---------  --------- ---------                
               FLASHspace   0x007800    program     extern V:\Projects\Wireless Firmware\EEPROM-Test\C Source\Main.c
          READ_TBLPOSTINC   0x007d8a    program     extern V:\Projects\Wireless Firmware\EEPROM-Test\C Source\flash.c
         WRITE_TBLPOSTINC   0x007d92    program     extern V:\Projects\Wireless Firmware\EEPROM-Test\C Source\flash.c
       ___return_lbl00000   0x000004    program     static                          
       ___return_lbl00001   0x007f00    program     static                          
       ___return_lbl00002   0x007ee6    program     static                          
       ___return_lbl00011   0x007d90    program     static                          
       ___return_lbl00012   0x007da2    program     static                          
                   __init   0x007f10    program     extern C:\MCC18\src\extended\stdclib\__init.c
            __zero_memory   0x007f02    program     extern C:\MCC18\src\extended\proc\p18F45J10.asm
                _do_cinit   0x007e4a    program     extern C:\MCC18\src\extended\startup\c018i_e.c
                   _entry   0x000000    program     extern C:\MCC18\src\extended\startup\c018i_e.c
                 _startup   0x007ee8    program     extern C:\MCC18\src\extended\startup\c018i_e.c
               clear_loop   0x007f08    program     static C:\MCC18\src\extended\proc\p18F45J10.asm
                copy_loop   0x007ebc    program     static                          
            copy_one_byte   0x007ec2    program     static                          
                     done   0x007ee6    program     static                          
             done_copying   0x007ed0    program     static                          
       erase_memory_block   0x007c02    program     extern V:\Projects\Wireless Firmware\EEPROM-Test\C Source\flash.c
                     loop   0x007ef6    program     static                          
                     main   0x007daa    program     extern V:\Projects\Wireless Firmware\EEPROM-Test\C Source\Main.c
read_flash_program_memory_byte   0x007d24    program     extern V:\Projects\Wireless Firmware\EEPROM-Test\C Source\flash.c
read_flash_program_memory_word   0x007d50    program     extern V:\Projects\Wireless Firmware\EEPROM-Test\C Source\flash.c
        read_memory_block   0x007cc6    program     extern V:\Projects\Wireless Firmware\EEPROM-Test\C Source\flash.c
                     test   0x007e64    program     static                          
       write_memory_block   0x007c4c    program     extern V:\Projects\Wireless Firmware\EEPROM-Test\C Source\flash.c
                   ADCON0   0x000fc2       data     extern C:\MCC18\src\extended\proc\p18F45J10.asm
               ADCON0bits   0x000fc2       data     extern C:\MCC18\src\extended\proc\p18F45J10.asm
                   ADCON1   0x000fc1       data     extern C:\MCC18\src\extended\proc\p18F45J10.asm
               ADCON1bits   0x000fc1       data     extern C:\MCC18\src\extended\proc\p18F45J10.asm
                   ADCON2   0x000fc0       data     extern C:\MCC18\src\extended\proc\p18F45J10.asm
               ADCON2bits   0x000fc0       data     extern C:\MCC18\src\extended\proc\p18F45J10.asm
                    ADRES   0x000fc3       data     extern C:\MCC18\src\extended\proc\p18F45J10.asm
                   ADRESH   0x000fc4       data     extern C:\MCC18\src\extended\proc\p18F45J10.asm
                   ADRESL   0x000fc3       data     extern C:\MCC18\src\extended\proc\p18F45J10.asm
                  BAUDCON   0x000fb8       data     extern C:\MCC18\src\extended\proc\p18F45J10.asm
              BAUDCONbits   0x000fb8       data     extern C:\MCC18\src\extended\proc\p18F45J10.asm
                  BAUDCTL   0x000fb8       data     extern C:\MCC18\src\extended\proc\p18F45J10.asm
              BAUDCTLbits   0x000fb8       data     extern C:\MCC18\src\extended\proc\p18F45J10.asm
                      BSR   0x000fe0       data     extern C:\MCC18\src\extended\proc\p18F45J10.asm
                  CCP1CON   0x000fbd       data     extern C:\MCC18\src\extended\proc\p18F45J10.asm
              CCP1CONbits   0x000fbd       data     extern C:\MCC18\src\extended\proc\p18F45J10.asm
                  CCP2CON   0x000fba       data     extern C:\MCC18\src\extended\proc\p18F45J10.asm
              CCP2CONbits   0x000fba       data     extern C:\MCC18\src\extended\proc\p18F45J10.asm
                    CCPR1   0x000fbe       data     extern C:\MCC18\src\extended\proc\p18F45J10.asm
                   CCPR1H   0x000fbf       data     extern C:\MCC18\src\extended\proc\p18F45J10.asm
                   CCPR1L   0x000fbe       data     extern C:\MCC18\src\extended\proc\p18F45J10.asm
                    CCPR2   0x000fbb       data     extern C:\MCC18\src\extended\proc\p18F45J10.asm
                   CCPR2H   0x000fbc       data     extern C:\MCC18\src\extended\proc\p18F45J10.asm
                   CCPR2L   0x000fbb       data     extern C:\MCC18\src\extended\proc\p18F45J10.asm
                    CMCON   0x000fb4       data     extern C:\MCC18\src\extended\proc\p18F45J10.asm
                CMCONbits   0x000fb4       data     extern C:\MCC18\src\extended\proc\p18F45J10.asm
                   CVRCON   0x000fb5       data     extern C:\MCC18\src\extended\proc\p18F45J10.asm
               CVRCONbits   0x000fb5       data     extern C:\MCC18\src\extended\proc\p18F45J10.asm
                     DDRA   0x000f92       data     extern C:\MCC18\src\extended\proc\p18F45J10.asm
                 DDRAbits   0x000f92       data     extern C:\MCC18\src\extended\proc\p18F45J10.asm
                     DDRB   0x000f93       data     extern C:\MCC18\src\extended\proc\p18F45J10.asm
                 DDRBbits   0x000f93       data     extern C:\MCC18\src\extended\proc\p18F45J10.asm
                     DDRC   0x000f94       data     extern C:\MCC18\src\extended\proc\p18F45J10.asm
                 DDRCbits   0x000f94       data     extern C:\MCC18\src\extended\proc\p18F45J10.asm
                     DDRD   0x000f95       data     extern C:\MCC18\src\extended\proc\p18F45J10.asm
                 DDRDbits   0x000f95       data     extern C:\MCC18\src\extended\proc\p18F45J10.asm
                     DDRE   0x000f96       data     extern C:\MCC18\src\extended\proc\p18F45J10.asm
                 DDREbits   0x000f96       data     extern C:\MCC18\src\extended\proc\p18F45J10.asm
                  ECCP1AS   0x000fb6       data     extern C:\MCC18\src\extended\proc\p18F45J10.asm
              ECCP1ASbits   0x000fb6       data     extern C:\MCC18\src\extended\proc\p18F45J10.asm
                 ECCP1CON   0x000fbd       data     extern C:\MCC18\src\extended\proc\p18F45J10.asm
             ECCP1CONbits   0x000fbd       data     extern C:\MCC18\src\extended\proc\p18F45J10.asm
                 ECCP1DEL   0x000fb7       data     extern C:\MCC18\src\extended\proc\p18F45J10.asm
             ECCP1DELbits   0x000fb7       data     extern C:\MCC18\src\extended\proc\p18F45J10.asm
                   EECON1   0x000fa6       data     extern C:\MCC18\src\extended\proc\p18F45J10.asm
               EECON1bits   0x000fa6       data     extern C:\MCC18\src\extended\proc\p18F45J10.asm
                   EECON2   0x000fa7       data     extern C:\MCC18\src\extended\proc\p18F45J10.asm
                     FSR0   0x000fe9       data     extern C:\MCC18\src\extended\proc\p18F45J10.asm
                    FSR0H   0x000fea       data     extern C:\MCC18\src\extended\proc\p18F45J10.asm
                    FSR0L   0x000fe9       data     extern C:\MCC18\src\extended\proc\p18F45J10.asm
                     FSR1   0x000fe1       data     extern C:\MCC18\src\extended\proc\p18F45J10.asm
                    FSR1H   0x000fe2       data     extern C:\MCC18\src\extended\proc\p18F45J10.asm
                    FSR1L   0x000fe1       data     extern C:\MCC18\src\extended\proc\p18F45J10.asm
                     FSR2   0x000fd9       data     extern C:\MCC18\src\extended\proc\p18F45J10.asm
                    FSR2H   0x000fda       data     extern C:\MCC18\src\extended\proc\p18F45J10.asm
                    FSR2L   0x000fd9       data     extern C:\MCC18\src\extended\proc\p18F45J10.asm
                    INDF0   0x000fef       data     extern C:\MCC18\src\extended\proc\p18F45J10.asm
                    INDF1   0x000fe7       data     extern C:\MCC18\src\extended\proc\p18F45J10.asm
                    INDF2   0x000fdf       data     extern C:\MCC18\src\extended\proc\p18F45J10.asm
                   INTCON   0x000ff2       data     extern C:\MCC18\src\extended\proc\p18F45J10.asm
                  INTCON2   0x000ff1       data     extern C:\MCC18\src\extended\proc\p18F45J10.asm
              INTCON2bits   0x000ff1       data     extern C:\MCC18\src\extended\proc\p18F45J10.asm
                  INTCON3   0x000ff0       data     extern C:\MCC18\src\extended\proc\p18F45J10.asm
              INTCON3bits   0x000ff0       data     extern C:\MCC18\src\extended\proc\p18F45J10.asm
               INTCONbits   0x000ff2       data     extern C:\MCC18\src\extended\proc\p18F45J10.asm
                     IPR1   0x000f9f       data     extern C:\MCC18\src\extended\proc\p18F45J10.asm
                 IPR1bits   0x000f9f       data     extern C:\MCC18\src\extended\proc\p18F45J10.asm
                     IPR2   0x000fa2       data     extern C:\MCC18\src\extended\proc\p18F45J10.asm
                 IPR2bits   0x000fa2       data     extern C:\MCC18\src\extended\proc\p18F45J10.asm
                     IPR3   0x000fa5       data     extern C:\MCC18\src\extended\proc\p18F45J10.asm
                 IPR3bits   0x000fa5       data     extern C:\MCC18\src\extended\proc\p18F45J10.asm
                     LATA   0x000f89       data     extern C:\MCC18\src\extended\proc\p18F45J10.asm
                 LATAbits   0x000f89       data     extern C:\MCC18\src\extended\proc\p18F45J10.asm
                     LATB   0x000f8a       data     extern C:\MCC18\src\extended\proc\p18F45J10.asm
                 LATBbits   0x000f8a       data     extern C:\MCC18\src\extended\proc\p18F45J10.asm
                     LATC   0x000f8b       data     extern C:\MCC18\src\extended\proc\p18F45J10.asm
                 LATCbits   0x000f8b       data     extern C:\MCC18\src\extended\proc\p18F45J10.asm
                     LATD   0x000f8c       data     extern C:\MCC18\src\extended\proc\p18F45J10.asm
                 LATDbits   0x000f8c       data     extern C:\MCC18\src\extended\proc\p18F45J10.asm
                     LATE   0x000f8d       data     extern C:\MCC18\src\extended\proc\p18F45J10.asm
                 LATEbits   0x000f8d       data     extern C:\MCC18\src\extended\proc\p18F45J10.asm
                   OSCCON   0x000fd3       data     extern C:\MCC18\src\extended\proc\p18F45J10.asm
               OSCCONbits   0x000fd3       data     extern C:\MCC18\src\extended\proc\p18F45J10.asm
                  OSCTUNE   0x000f9b       data     extern C:\MCC18\src\extended\proc\p18F45J10.asm
              OSCTUNEbits   0x000f9b       data     extern C:\MCC18\src\extended\proc\p18F45J10.asm
                       PC   0x000ff9       data     extern C:\MCC18\src\extended\proc\p18F45J10.asm
                      PCL   0x000ff9       data     extern C:\MCC18\src\extended\proc\p18F45J10.asm
                   PCLATH   0x000ffa       data     extern C:\MCC18\src\extended\proc\p18F45J10.asm
                   PCLATU   0x000ffb       data     extern C:\MCC18\src\extended\proc\p18F45J10.asm
                     PIE1   0x000f9d       data     extern C:\MCC18\src\extended\proc\p18F45J10.asm
                 PIE1bits   0x000f9d       data     extern C:\MCC18\src\extended\proc\p18F45J10.asm
                     PIE2   0x000fa0       data     extern C:\MCC18\src\extended\proc\p18F45J10.asm
                 PIE2bits   0x000fa0       data     extern C:\MCC18\src\extended\proc\p18F45J10.asm
                     PIE3   0x000fa3       data     extern C:\MCC18\src\extended\proc\p18F45J10.asm
                 PIE3bits   0x000fa3       data     extern C:\MCC18\src\extended\proc\p18F45J10.asm
                     PIR1   0x000f9e       data     extern C:\MCC18\src\extended\proc\p18F45J10.asm
                 PIR1bits   0x000f9e       data     extern C:\MCC18\src\extended\proc\p18F45J10.asm
                     PIR2   0x000fa1       data     extern C:\MCC18\src\extended\proc\p18F45J10.asm
                 PIR2bits   0x000fa1       data     extern C:\MCC18\src\extended\proc\p18F45J10.asm
                     PIR3   0x000fa4       data     extern C:\MCC18\src\extended\proc\p18F45J10.asm
                 PIR3bits   0x000fa4       data     extern C:\MCC18\src\extended\proc\p18F45J10.asm
                   PLUSW0   0x000feb       data     extern C:\MCC18\src\extended\proc\p18F45J10.asm
                   PLUSW1   0x000fe3       data     extern C:\MCC18\src\extended\proc\p18F45J10.asm
                   PLUSW2   0x000fdb       data     extern C:\MCC18\src\extended\proc\p18F45J10.asm
                    PORTA   0x000f80       data     extern C:\MCC18\src\extended\proc\p18F45J10.asm
                PORTAbits   0x000f80       data     extern C:\MCC18\src\extended\proc\p18F45J10.asm
                    PORTB   0x000f81       data     extern C:\MCC18\src\extended\proc\p18F45J10.asm
                PORTBbits   0x000f81       data     extern C:\MCC18\src\extended\proc\p18F45J10.asm
                    PORTC   0x000f82       data     extern C:\MCC18\src\extended\proc\p18F45J10.asm
                PORTCbits   0x000f82       data     extern C:\MCC18\src\extended\proc\p18F45J10.asm
                    PORTD   0x000f83       data     extern C:\MCC18\src\extended\proc\p18F45J10.asm
                PORTDbits   0x000f83       data     extern C:\MCC18\src\extended\proc\p18F45J10.asm
                    PORTE   0x000f84       data     extern C:\MCC18\src\extended\proc\p18F45J10.asm
                PORTEbits   0x000f84       data     extern C:\MCC18\src\extended\proc\p18F45J10.asm
                 POSTDEC0   0x000fed       data     extern C:\MCC18\src\extended\proc\p18F45J10.asm
                 POSTDEC1   0x000fe5       data     extern C:\MCC18\src\extended\proc\p18F45J10.asm
                 POSTDEC2   0x000fdd       data     extern C:\MCC18\src\extended\proc\p18F45J10.asm
                 POSTINC0   0x000fee       data     extern C:\MCC18\src\extended\proc\p18F45J10.asm
                 POSTINC1   0x000fe6       data     extern C:\MCC18\src\extended\proc\p18F45J10.asm
                 POSTINC2   0x000fde       data     extern C:\MCC18\src\extended\proc\p18F45J10.asm
                      PR2   0x000fcb       data     extern C:\MCC18\src\extended\proc\p18F45J10.asm
                  PREINC0   0x000fec       data     extern C:\MCC18\src\extended\proc\p18F45J10.asm
                  PREINC1   0x000fe4       data     extern C:\MCC18\src\extended\proc\p18F45J10.asm
                  PREINC2   0x000fdc       data     extern C:\MCC18\src\extended\proc\p18F45J10.asm
                     PROD   0x000ff3       data     extern C:\MCC18\src\extended\proc\p18F45J10.asm
                    PRODH   0x000ff4       data     extern C:\MCC18\src\extended\proc\p18F45J10.asm
                    PRODL   0x000ff3       data     extern C:\MCC18\src\extended\proc\p18F45J10.asm
                  PWM1CON   0x000fb7       data     extern C:\MCC18\src\extended\proc\p18F45J10.asm
              PWM1CONbits   0x000fb7       data     extern C:\MCC18\src\extended\proc\p18F45J10.asm
                     RCON   0x000fd0       data     extern C:\MCC18\src\extended\proc\p18F45J10.asm
                 RCONbits   0x000fd0       data     extern C:\MCC18\src\extended\proc\p18F45J10.asm
                    RCREG   0x000fae       data     extern C:\MCC18\src\extended\proc\p18F45J10.asm
                   RCREG1   0x000fae       data     extern C:\MCC18\src\extended\proc\p18F45J10.asm
                    RCSTA   0x000fab       data     extern C:\MCC18\src\extended\proc\p18F45J10.asm
                   RCSTA1   0x000fab       data     extern C:\MCC18\src\extended\proc\p18F45J10.asm
               RCSTA1bits   0x000fab       data     extern C:\MCC18\src\extended\proc\p18F45J10.asm
                RCSTAbits   0x000fab       data     extern C:\MCC18\src\extended\proc\p18F45J10.asm
                    SPBRG   0x000faf       data     extern C:\MCC18\src\extended\proc\p18F45J10.asm
                   SPBRG1   0x000faf       data     extern C:\MCC18\src\extended\proc\p18F45J10.asm
                   SPBRGH   0x000fb0       data     extern C:\MCC18\src\extended\proc\p18F45J10.asm
                  SSP1ADD   0x000fc8       data     extern C:\MCC18\src\extended\proc\p18F45J10.asm
                  SSP1BUF   0x000fc9       data     extern C:\MCC18\src\extended\proc\p18F45J10.asm
                 SSP1CON1   0x000fc6       data     extern C:\MCC18\src\extended\proc\p18F45J10.asm
             SSP1CON1bits   0x000fc6       data     extern C:\MCC18\src\extended\proc\p18F45J10.asm
                 SSP1CON2   0x000fc5       data     extern C:\MCC18\src\extended\proc\p18F45J10.asm
             SSP1CON2bits   0x000fc5       data     extern C:\MCC18\src\extended\proc\p18F45J10.asm
                 SSP1STAT   0x000fc7       data     extern C:\MCC18\src\extended\proc\p18F45J10.asm
             SSP1STATbits   0x000fc7       data     extern C:\MCC18\src\extended\proc\p18F45J10.asm
                  SSP2ADD   0x000f88       data     extern C:\MCC18\src\extended\proc\p18F45J10.asm
                  SSP2BUF   0x000f8e       data     extern C:\MCC18\src\extended\proc\p18F45J10.asm
                 SSP2CON1   0x000f86       data     extern C:\MCC18\src\extended\proc\p18F45J10.asm
             SSP2CON1bits   0x000f86       data     extern C:\MCC18\src\extended\proc\p18F45J10.asm
                 SSP2CON2   0x000f85       data     extern C:\MCC18\src\extended\proc\p18F45J10.asm
             SSP2CON2bits   0x000f85       data     extern C:\MCC18\src\extended\proc\p18F45J10.asm
                 SSP2STAT   0x000f87       data     extern C:\MCC18\src\extended\proc\p18F45J10.asm
             SSP2STATbits   0x000f87       data     extern C:\MCC18\src\extended\proc\p18F45J10.asm
                   SSPADD   0x000fc8       data     extern C:\MCC18\src\extended\proc\p18F45J10.asm
                   SSPBUF   0x000fc9       data     extern C:\MCC18\src\extended\proc\p18F45J10.asm
                  SSPCON1   0x000fc6       data     extern C:\MCC18\src\extended\proc\p18F45J10.asm
              SSPCON1bits   0x000fc6       data     extern C:\MCC18\src\extended\proc\p18F45J10.asm
                  SSPCON2   0x000fc5       data     extern C:\MCC18\src\extended\proc\p18F45J10.asm
              SSPCON2bits   0x000fc5       data     extern C:\MCC18\src\extended\proc\p18F45J10.asm
                  SSPSTAT   0x000fc7       data     extern C:\MCC18\src\extended\proc\p18F45J10.asm
              SSPSTATbits   0x000fc7       data     extern C:\MCC18\src\extended\proc\p18F45J10.asm
                   STATUS   0x000fd8       data     extern C:\MCC18\src\extended\proc\p18F45J10.asm
               STATUSbits   0x000fd8       data     extern C:\MCC18\src\extended\proc\p18F45J10.asm
                   STKPTR   0x000ffc       data     extern C:\MCC18\src\extended\proc\p18F45J10.asm
               STKPTRbits   0x000ffc       data     extern C:\MCC18\src\extended\proc\p18F45J10.asm
                    T0CON   0x000fd5       data     extern C:\MCC18\src\extended\proc\p18F45J10.asm
                T0CONbits   0x000fd5       data     extern C:\MCC18\src\extended\proc\p18F45J10.asm
                    T1CON   0x000fcd       data     extern C:\MCC18\src\extended\proc\p18F45J10.asm
                T1CONbits   0x000fcd       data     extern C:\MCC18\src\extended\proc\p18F45J10.asm
                    T2CON   0x000fca       data     extern C:\MCC18\src\extended\proc\p18F45J10.asm
                T2CONbits   0x000fca       data     extern C:\MCC18\src\extended\proc\p18F45J10.asm
                   TABLAT   0x000ff5       data     extern C:\MCC18\src\extended\proc\p18F45J10.asm
                   TBLPTR   0x000ff6       data     extern C:\MCC18\src\extended\proc\p18F45J10.asm
                  TBLPTRH   0x000ff7       data     extern C:\MCC18\src\extended\proc\p18F45J10.asm
                  TBLPTRL   0x000ff6       data     extern C:\MCC18\src\extended\proc\p18F45J10.asm
                  TBLPTRU   0x000ff8       data     extern C:\MCC18\src\extended\proc\p18F45J10.asm
                    TMR0H   0x000fd7       data     extern C:\MCC18\src\extended\proc\p18F45J10.asm
                    TMR0L   0x000fd6       data     extern C:\MCC18\src\extended\proc\p18F45J10.asm
                    TMR1H   0x000fcf       data     extern C:\MCC18\src\extended\proc\p18F45J10.asm
                    TMR1L   0x000fce       data     extern C:\MCC18\src\extended\proc\p18F45J10.asm
                     TMR2   0x000fcc       data     extern C:\MCC18\src\extended\proc\p18F45J10.asm
                      TOS   0x000ffd       data     extern C:\MCC18\src\extended\proc\p18F45J10.asm
                     TOSH   0x000ffe       data     extern C:\MCC18\src\extended\proc\p18F45J10.asm
                     TOSL   0x000ffd       data     extern C:\MCC18\src\extended\proc\p18F45J10.asm
                     TOSU   0x000fff       data     extern C:\MCC18\src\extended\proc\p18F45J10.asm
                    TRISA   0x000f92       data     extern C:\MCC18\src\extended\proc\p18F45J10.asm
                TRISAbits   0x000f92       data     extern C:\MCC18\src\extended\proc\p18F45J10.asm
                    TRISB   0x000f93       data     extern C:\MCC18\src\extended\proc\p18F45J10.asm
                TRISBbits   0x000f93       data     extern C:\MCC18\src\extended\proc\p18F45J10.asm
                    TRISC   0x000f94       data     extern C:\MCC18\src\extended\proc\p18F45J10.asm
                TRISCbits   0x000f94       data     extern C:\MCC18\src\extended\proc\p18F45J10.asm
                    TRISD   0x000f95       data     extern C:\MCC18\src\extended\proc\p18F45J10.asm
                TRISDbits   0x000f95       data     extern C:\MCC18\src\extended\proc\p18F45J10.asm
                    TRISE   0x000f96       data     extern C:\MCC18\src\extended\proc\p18F45J10.asm
                TRISEbits   0x000f96       data     extern C:\MCC18\src\extended\proc\p18F45J10.asm
                    TXREG   0x000fad       data     extern C:\MCC18\src\extended\proc\p18F45J10.asm
                   TXREG1   0x000fad       data     extern C:\MCC18\src\extended\proc\p18F45J10.asm
                    TXSTA   0x000fac       data     extern C:\MCC18\src\extended\proc\p18F45J10.asm
                   TXSTA1   0x000fac       data     extern C:\MCC18\src\extended\proc\p18F45J10.asm
               TXSTA1bits   0x000fac       data     extern C:\MCC18\src\extended\proc\p18F45J10.asm
                TXSTAbits   0x000fac       data     extern C:\MCC18\src\extended\proc\p18F45J10.asm
                   WDTCON   0x000fd1       data     extern C:\MCC18\src\extended\proc\p18F45J10.asm
               WDTCONbits   0x000fd1       data     extern C:\MCC18\src\extended\proc\p18F45J10.asm
                     WREG   0x000fe8       data     extern C:\MCC18\src\extended\proc\p18F45J10.asm
                curr_byte   0x000003       data     static C:\MCC18\src\extended\startup\c018i_e.c
               curr_entry   0x000005       data     static C:\MCC18\src\extended\startup\c018i_e.c
                 data_ptr   0x000007       data     static C:\MCC18\src\extended\startup\c018i_e.c
                     prom   0x000000       data     static C:\MCC18\src\extended\startup\c018i_e.c
                ram_data1   0x000080       data     extern V:\Projects\Wireless Firmware\EEPROM-Test\C Source\Main.c
                ram_data2   0x0000c0       data     extern V:\Projects\Wireless Firmware\EEPROM-Test\C Source\Main.c



                              Symbols - Sorted by Address
                     Name    Address   Location    Storage File                     
                ---------  ---------  ---------  --------- ---------                
                   _entry   0x000000    program     extern C:\MCC18\src\extended\startup\c018i_e.c
       ___return_lbl00000   0x000004    program     static                          
               FLASHspace   0x007800    program     extern V:\Projects\Wireless Firmware\EEPROM-Test\C Source\Main.c
       erase_memory_block   0x007c02    program     extern V:\Projects\Wireless Firmware\EEPROM-Test\C Source\flash.c
       write_memory_block   0x007c4c    program     extern V:\Projects\Wireless Firmware\EEPROM-Test\C Source\flash.c
        read_memory_block   0x007cc6    program     extern V:\Projects\Wireless Firmware\EEPROM-Test\C Source\flash.c
read_flash_program_memory_byte   0x007d24    program     extern V:\Projects\Wireless Firmware\EEPROM-Test\C Source\flash.c
read_flash_program_memory_word   0x007d50    program     extern V:\Projects\Wireless Firmware\EEPROM-Test\C Source\flash.c
          READ_TBLPOSTINC   0x007d8a    program     extern V:\Projects\Wireless Firmware\EEPROM-Test\C Source\flash.c
       ___return_lbl00011   0x007d90    program     static                          
         WRITE_TBLPOSTINC   0x007d92    program     extern V:\Projects\Wireless Firmware\EEPROM-Test\C Source\flash.c
       ___return_lbl00012   0x007da2    program     static                          
                     main   0x007daa    program     extern V:\Projects\Wireless Firmware\EEPROM-Test\C Source\Main.c
                _do_cinit   0x007e4a    program     extern C:\MCC18\src\extended\startup\c018i_e.c
                     test   0x007e64    program     static                          
                copy_loop   0x007ebc    program     static                          
            copy_one_byte   0x007ec2    program     static                          
             done_copying   0x007ed0    program     static                          
                     done   0x007ee6    program     static                          
       ___return_lbl00002   0x007ee6    program     static                          
                 _startup   0x007ee8    program     extern C:\MCC18\src\extended\startup\c018i_e.c
                     loop   0x007ef6    program     static                          
       ___return_lbl00001   0x007f00    program     static                          
            __zero_memory   0x007f02    program     extern C:\MCC18\src\extended\proc\p18F45J10.asm
               clear_loop   0x007f08    program     static C:\MCC18\src\extended\proc\p18F45J10.asm
                   __init   0x007f10    program     extern C:\MCC18\src\extended\stdclib\__init.c
                     prom   0x000000       data     static C:\MCC18\src\extended\startup\c018i_e.c
                curr_byte   0x000003       data     static C:\MCC18\src\extended\startup\c018i_e.c
               curr_entry   0x000005       data     static C:\MCC18\src\extended\startup\c018i_e.c
                 data_ptr   0x000007       data     static C:\MCC18\src\extended\startup\c018i_e.c
                ram_data1   0x000080       data     extern V:\Projects\Wireless Firmware\EEPROM-Test\C Source\Main.c
                ram_data2   0x0000c0       data     extern V:\Projects\Wireless Firmware\EEPROM-Test\C Source\Main.c
                PORTAbits   0x000f80       data     extern C:\MCC18\src\extended\proc\p18F45J10.asm
                    PORTA   0x000f80       data     extern C:\MCC18\src\extended\proc\p18F45J10.asm
                PORTBbits   0x000f81       data     extern C:\MCC18\src\extended\proc\p18F45J10.asm
                    PORTB   0x000f81       data     extern C:\MCC18\src\extended\proc\p18F45J10.asm
                PORTCbits   0x000f82       data     extern C:\MCC18\src\extended\proc\p18F45J10.asm
                    PORTC   0x000f82       data     extern C:\MCC18\src\extended\proc\p18F45J10.asm
                    PORTD   0x000f83       data     extern C:\MCC18\src\extended\proc\p18F45J10.asm
                PORTDbits   0x000f83       data     extern C:\MCC18\src\extended\proc\p18F45J10.asm
                    PORTE   0x000f84       data     extern C:\MCC18\src\extended\proc\p18F45J10.asm
                PORTEbits   0x000f84       data     extern C:\MCC18\src\extended\proc\p18F45J10.asm
                 SSP2CON2   0x000f85       data     extern C:\MCC18\src\extended\proc\p18F45J10.asm
             SSP2CON2bits   0x000f85       data     extern C:\MCC18\src\extended\proc\p18F45J10.asm
             SSP2CON1bits   0x000f86       data     extern C:\MCC18\src\extended\proc\p18F45J10.asm
                 SSP2CON1   0x000f86       data     extern C:\MCC18\src\extended\proc\p18F45J10.asm
             SSP2STATbits   0x000f87       data     extern C:\MCC18\src\extended\proc\p18F45J10.asm
                 SSP2STAT   0x000f87       data     extern C:\MCC18\src\extended\proc\p18F45J10.asm
                  SSP2ADD   0x000f88       data     extern C:\MCC18\src\extended\proc\p18F45J10.asm
                     LATA   0x000f89       data     extern C:\MCC18\src\extended\proc\p18F45J10.asm
                 LATAbits   0x000f89       data     extern C:\MCC18\src\extended\proc\p18F45J10.asm
                     LATB   0x000f8a       data     extern C:\MCC18\src\extended\proc\p18F45J10.asm
                 LATBbits   0x000f8a       data     extern C:\MCC18\src\extended\proc\p18F45J10.asm
                 LATCbits   0x000f8b       data     extern C:\MCC18\src\extended\proc\p18F45J10.asm
                     LATC   0x000f8b       data     extern C:\MCC18\src\extended\proc\p18F45J10.asm
                 LATDbits   0x000f8c       data     extern C:\MCC18\src\extended\proc\p18F45J10.asm
                     LATD   0x000f8c       data     extern C:\MCC18\src\extended\proc\p18F45J10.asm
                     LATE   0x000f8d       data     extern C:\MCC18\src\extended\proc\p18F45J10.asm
                 LATEbits   0x000f8d       data     extern C:\MCC18\src\extended\proc\p18F45J10.asm
                  SSP2BUF   0x000f8e       data     extern C:\MCC18\src\extended\proc\p18F45J10.asm
                 DDRAbits   0x000f92       data     extern C:\MCC18\src\extended\proc\p18F45J10.asm
                     DDRA   0x000f92       data     extern C:\MCC18\src\extended\proc\p18F45J10.asm
                TRISAbits   0x000f92       data     extern C:\MCC18\src\extended\proc\p18F45J10.asm
                    TRISA   0x000f92       data     extern C:\MCC18\src\extended\proc\p18F45J10.asm
                 DDRBbits   0x000f93       data     extern C:\MCC18\src\extended\proc\p18F45J10.asm
                     DDRB   0x000f93       data     extern C:\MCC18\src\extended\proc\p18F45J10.asm
                    TRISB   0x000f93       data     extern C:\MCC18\src\extended\proc\p18F45J10.asm
                TRISBbits   0x000f93       data     extern C:\MCC18\src\extended\proc\p18F45J10.asm
                     DDRC   0x000f94       data     extern C:\MCC18\src\extended\proc\p18F45J10.asm
                 DDRCbits   0x000f94       data     extern C:\MCC18\src\extended\proc\p18F45J10.asm
                    TRISC   0x000f94       data     extern C:\MCC18\src\extended\proc\p18F45J10.asm
                TRISCbits   0x000f94       data     extern C:\MCC18\src\extended\proc\p18F45J10.asm
                     DDRD   0x000f95       data     extern C:\MCC18\src\extended\proc\p18F45J10.asm
                 DDRDbits   0x000f95       data     extern C:\MCC18\src\extended\proc\p18F45J10.asm
                    TRISD   0x000f95       data     extern C:\MCC18\src\extended\proc\p18F45J10.asm
                TRISDbits   0x000f95       data     extern C:\MCC18\src\extended\proc\p18F45J10.asm
                     DDRE   0x000f96       data     extern C:\MCC18\src\extended\proc\p18F45J10.asm
                TRISEbits   0x000f96       data     extern C:\MCC18\src\extended\proc\p18F45J10.asm
                 DDREbits   0x000f96       data     extern C:\MCC18\src\extended\proc\p18F45J10.asm
                    TRISE   0x000f96       data     extern C:\MCC18\src\extended\proc\p18F45J10.asm
              OSCTUNEbits   0x000f9b       data     extern C:\MCC18\src\extended\proc\p18F45J10.asm
                  OSCTUNE   0x000f9b       data     extern C:\MCC18\src\extended\proc\p18F45J10.asm
                     PIE1   0x000f9d       data     extern C:\MCC18\src\extended\proc\p18F45J10.asm
                 PIE1bits   0x000f9d       data     extern C:\MCC18\src\extended\proc\p18F45J10.asm
                 PIR1bits   0x000f9e       data     extern C:\MCC18\src\extended\proc\p18F45J10.asm
                     PIR1   0x000f9e       data     extern C:\MCC18\src\extended\proc\p18F45J10.asm
                 IPR1bits   0x000f9f       data     extern C:\MCC18\src\extended\proc\p18F45J10.asm
                     IPR1   0x000f9f       data     extern C:\MCC18\src\extended\proc\p18F45J10.asm
                 PIE2bits   0x000fa0       data     extern C:\MCC18\src\extended\proc\p18F45J10.asm
                     PIE2   0x000fa0       data     extern C:\MCC18\src\extended\proc\p18F45J10.asm
                 PIR2bits   0x000fa1       data     extern C:\MCC18\src\extended\proc\p18F45J10.asm
                     PIR2   0x000fa1       data     extern C:\MCC18\src\extended\proc\p18F45J10.asm
                     IPR2   0x000fa2       data     extern C:\MCC18\src\extended\proc\p18F45J10.asm
                 IPR2bits   0x000fa2       data     extern C:\MCC18\src\extended\proc\p18F45J10.asm
                 PIE3bits   0x000fa3       data     extern C:\MCC18\src\extended\proc\p18F45J10.asm
                     PIE3   0x000fa3       data     extern C:\MCC18\src\extended\proc\p18F45J10.asm
                     PIR3   0x000fa4       data     extern C:\MCC18\src\extended\proc\p18F45J10.asm
                 PIR3bits   0x000fa4       data     extern C:\MCC18\src\extended\proc\p18F45J10.asm
                     IPR3   0x000fa5       data     extern C:\MCC18\src\extended\proc\p18F45J10.asm
                 IPR3bits   0x000fa5       data     extern C:\MCC18\src\extended\proc\p18F45J10.asm
                   EECON1   0x000fa6       data     extern C:\MCC18\src\extended\proc\p18F45J10.asm
               EECON1bits   0x000fa6       data     extern C:\MCC18\src\extended\proc\p18F45J10.asm
                   EECON2   0x000fa7       data     extern C:\MCC18\src\extended\proc\p18F45J10.asm
                    RCSTA   0x000fab       data     extern C:\MCC18\src\extended\proc\p18F45J10.asm
                   RCSTA1   0x000fab       data     extern C:\MCC18\src\extended\proc\p18F45J10.asm
               RCSTA1bits   0x000fab       data     extern C:\MCC18\src\extended\proc\p18F45J10.asm
                RCSTAbits   0x000fab       data     extern C:\MCC18\src\extended\proc\p18F45J10.asm
                    TXSTA   0x000fac       data     extern C:\MCC18\src\extended\proc\p18F45J10.asm
                   TXSTA1   0x000fac       data     extern C:\MCC18\src\extended\proc\p18F45J10.asm
               TXSTA1bits   0x000fac       data     extern C:\MCC18\src\extended\proc\p18F45J10.asm
                TXSTAbits   0x000fac       data     extern C:\MCC18\src\extended\proc\p18F45J10.asm
                   TXREG1   0x000fad       data     extern C:\MCC18\src\extended\proc\p18F45J10.asm
                    TXREG   0x000fad       data     extern C:\MCC18\src\extended\proc\p18F45J10.asm
                    RCREG   0x000fae       data     extern C:\MCC18\src\extended\proc\p18F45J10.asm
                   RCREG1   0x000fae       data     extern C:\MCC18\src\extended\proc\p18F45J10.asm
                    SPBRG   0x000faf       data     extern C:\MCC18\src\extended\proc\p18F45J10.asm
                   SPBRG1   0x000faf       data     extern C:\MCC18\src\extended\proc\p18F45J10.asm
                   SPBRGH   0x000fb0       data     extern C:\MCC18\src\extended\proc\p18F45J10.asm
                CMCONbits   0x000fb4       data     extern C:\MCC18\src\extended\proc\p18F45J10.asm
                    CMCON   0x000fb4       data     extern C:\MCC18\src\extended\proc\p18F45J10.asm
               CVRCONbits   0x000fb5       data     extern C:\MCC18\src\extended\proc\p18F45J10.asm
                   CVRCON   0x000fb5       data     extern C:\MCC18\src\extended\proc\p18F45J10.asm
              ECCP1ASbits   0x000fb6       data     extern C:\MCC18\src\extended\proc\p18F45J10.asm
                  ECCP1AS   0x000fb6       data     extern C:\MCC18\src\extended\proc\p18F45J10.asm
                  PWM1CON   0x000fb7       data     extern C:\MCC18\src\extended\proc\p18F45J10.asm
              PWM1CONbits   0x000fb7       data     extern C:\MCC18\src\extended\proc\p18F45J10.asm
             ECCP1DELbits   0x000fb7       data     extern C:\MCC18\src\extended\proc\p18F45J10.asm
                 ECCP1DEL   0x000fb7       data     extern C:\MCC18\src\extended\proc\p18F45J10.asm
                  BAUDCON   0x000fb8       data     extern C:\MCC18\src\extended\proc\p18F45J10.asm
              BAUDCTLbits   0x000fb8       data     extern C:\MCC18\src\extended\proc\p18F45J10.asm
                  BAUDCTL   0x000fb8       data     extern C:\MCC18\src\extended\proc\p18F45J10.asm
              BAUDCONbits   0x000fb8       data     extern C:\MCC18\src\extended\proc\p18F45J10.asm
              CCP2CONbits   0x000fba       data     extern C:\MCC18\src\extended\proc\p18F45J10.asm
                  CCP2CON   0x000fba       data     extern C:\MCC18\src\extended\proc\p18F45J10.asm
                   CCPR2L   0x000fbb       data     extern C:\MCC18\src\extended\proc\p18F45J10.asm
                    CCPR2   0x000fbb       data     extern C:\MCC18\src\extended\proc\p18F45J10.asm
                   CCPR2H   0x000fbc       data     extern C:\MCC18\src\extended\proc\p18F45J10.asm
              CCP1CONbits   0x000fbd       data     extern C:\MCC18\src\extended\proc\p18F45J10.asm
                  CCP1CON   0x000fbd       data     extern C:\MCC18\src\extended\proc\p18F45J10.asm
                 ECCP1CON   0x000fbd       data     extern C:\MCC18\src\extended\proc\p18F45J10.asm
             ECCP1CONbits   0x000fbd       data     extern C:\MCC18\src\extended\proc\p18F45J10.asm
                    CCPR1   0x000fbe       data     extern C:\MCC18\src\extended\proc\p18F45J10.asm
                   CCPR1L   0x000fbe       data     extern C:\MCC18\src\extended\proc\p18F45J10.asm
                   CCPR1H   0x000fbf       data     extern C:\MCC18\src\extended\proc\p18F45J10.asm
               ADCON2bits   0x000fc0       data     extern C:\MCC18\src\extended\proc\p18F45J10.asm
                   ADCON2   0x000fc0       data     extern C:\MCC18\src\extended\proc\p18F45J10.asm
               ADCON1bits   0x000fc1       data     extern C:\MCC18\src\extended\proc\p18F45J10.asm
                   ADCON1   0x000fc1       data     extern C:\MCC18\src\extended\proc\p18F45J10.asm
               ADCON0bits   0x000fc2       data     extern C:\MCC18\src\extended\proc\p18F45J10.asm
                   ADCON0   0x000fc2       data     extern C:\MCC18\src\extended\proc\p18F45J10.asm
                    ADRES   0x000fc3       data     extern C:\MCC18\src\extended\proc\p18F45J10.asm
                   ADRESL   0x000fc3       data     extern C:\MCC18\src\extended\proc\p18F45J10.asm
                   ADRESH   0x000fc4       data     extern C:\MCC18\src\extended\proc\p18F45J10.asm
              SSPCON2bits   0x000fc5       data     extern C:\MCC18\src\extended\proc\p18F45J10.asm
                  SSPCON2   0x000fc5       data     extern C:\MCC18\src\extended\proc\p18F45J10.asm
             SSP1CON2bits   0x000fc5       data     extern C:\MCC18\src\extended\proc\p18F45J10.asm
                 SSP1CON2   0x000fc5       data     extern C:\MCC18\src\extended\proc\p18F45J10.asm
              SSPCON1bits   0x000fc6       data     extern C:\MCC18\src\extended\proc\p18F45J10.asm
                  SSPCON1   0x000fc6       data     extern C:\MCC18\src\extended\proc\p18F45J10.asm
             SSP1CON1bits   0x000fc6       data     extern C:\MCC18\src\extended\proc\p18F45J10.asm
                 SSP1CON1   0x000fc6       data     extern C:\MCC18\src\extended\proc\p18F45J10.asm
             SSP1STATbits   0x000fc7       data     extern C:\MCC18\src\extended\proc\p18F45J10.asm
              SSPSTATbits   0x000fc7       data     extern C:\MCC18\src\extended\proc\p18F45J10.asm
                  SSPSTAT   0x000fc7       data     extern C:\MCC18\src\extended\proc\p18F45J10.asm
                 SSP1STAT   0x000fc7       data     extern C:\MCC18\src\extended\proc\p18F45J10.asm
                   SSPADD   0x000fc8       data     extern C:\MCC18\src\extended\proc\p18F45J10.asm
                  SSP1ADD   0x000fc8       data     extern C:\MCC18\src\extended\proc\p18F45J10.asm
                  SSP1BUF   0x000fc9       data     extern C:\MCC18\src\extended\proc\p18F45J10.asm
                   SSPBUF   0x000fc9       data     extern C:\MCC18\src\extended\proc\p18F45J10.asm
                    T2CON   0x000fca       data     extern C:\MCC18\src\extended\proc\p18F45J10.asm
                T2CONbits   0x000fca       data     extern C:\MCC18\src\extended\proc\p18F45J10.asm
                      PR2   0x000fcb       data     extern C:\MCC18\src\extended\proc\p18F45J10.asm
                     TMR2   0x000fcc       data     extern C:\MCC18\src\extended\proc\p18F45J10.asm
                    T1CON   0x000fcd       data     extern C:\MCC18\src\extended\proc\p18F45J10.asm
                T1CONbits   0x000fcd       data     extern C:\MCC18\src\extended\proc\p18F45J10.asm
                    TMR1L   0x000fce       data     extern C:\MCC18\src\extended\proc\p18F45J10.asm
                    TMR1H   0x000fcf       data     extern C:\MCC18\src\extended\proc\p18F45J10.asm
                 RCONbits   0x000fd0       data     extern C:\MCC18\src\extended\proc\p18F45J10.asm
                     RCON   0x000fd0       data     extern C:\MCC18\src\extended\proc\p18F45J10.asm
               WDTCONbits   0x000fd1       data     extern C:\MCC18\src\extended\proc\p18F45J10.asm
                   WDTCON   0x000fd1       data     extern C:\MCC18\src\extended\proc\p18F45J10.asm
               OSCCONbits   0x000fd3       data     extern C:\MCC18\src\extended\proc\p18F45J10.asm
                   OSCCON   0x000fd3       data     extern C:\MCC18\src\extended\proc\p18F45J10.asm
                T0CONbits   0x000fd5       data     extern C:\MCC18\src\extended\proc\p18F45J10.asm
                    T0CON   0x000fd5       data     extern C:\MCC18\src\extended\proc\p18F45J10.asm
                    TMR0L   0x000fd6       data     extern C:\MCC18\src\extended\proc\p18F45J10.asm
                    TMR0H   0x000fd7       data     extern C:\MCC18\src\extended\proc\p18F45J10.asm
                   STATUS   0x000fd8       data     extern C:\MCC18\src\extended\proc\p18F45J10.asm
               STATUSbits   0x000fd8       data     extern C:\MCC18\src\extended\proc\p18F45J10.asm
                     FSR2   0x000fd9       data     extern C:\MCC18\src\extended\proc\p18F45J10.asm
                    FSR2L   0x000fd9       data     extern C:\MCC18\src\extended\proc\p18F45J10.asm
                    FSR2H   0x000fda       data     extern C:\MCC18\src\extended\proc\p18F45J10.asm
                   PLUSW2   0x000fdb       data     extern C:\MCC18\src\extended\proc\p18F45J10.asm
                  PREINC2   0x000fdc       data     extern C:\MCC18\src\extended\proc\p18F45J10.asm
                 POSTDEC2   0x000fdd       data     extern C:\MCC18\src\extended\proc\p18F45J10.asm
                 POSTINC2   0x000fde       data     extern C:\MCC18\src\extended\proc\p18F45J10.asm
                    INDF2   0x000fdf       data     extern C:\MCC18\src\extended\proc\p18F45J10.asm
                      BSR   0x000fe0       data     extern C:\MCC18\src\extended\proc\p18F45J10.asm
                     FSR1   0x000fe1       data     extern C:\MCC18\src\extended\proc\p18F45J10.asm
                    FSR1L   0x000fe1       data     extern C:\MCC18\src\extended\proc\p18F45J10.asm
                    FSR1H   0x000fe2       data     extern C:\MCC18\src\extended\proc\p18F45J10.asm
                   PLUSW1   0x000fe3       data     extern C:\MCC18\src\extended\proc\p18F45J10.asm
                  PREINC1   0x000fe4       data     extern C:\MCC18\src\extended\proc\p18F45J10.asm
                 POSTDEC1   0x000fe5       data     extern C:\MCC18\src\extended\proc\p18F45J10.asm
                 POSTINC1   0x000fe6       data     extern C:\MCC18\src\extended\proc\p18F45J10.asm
                    INDF1   0x000fe7       data     extern C:\MCC18\src\extended\proc\p18F45J10.asm
                     WREG   0x000fe8       data     extern C:\MCC18\src\extended\proc\p18F45J10.asm
                    FSR0L   0x000fe9       data     extern C:\MCC18\src\extended\proc\p18F45J10.asm
                     FSR0   0x000fe9       data     extern C:\MCC18\src\extended\proc\p18F45J10.asm
                    FSR0H   0x000fea       data     extern C:\MCC18\src\extended\proc\p18F45J10.asm
                   PLUSW0   0x000feb       data     extern C:\MCC18\src\extended\proc\p18F45J10.asm
                  PREINC0   0x000fec       data     extern C:\MCC18\src\extended\proc\p18F45J10.asm
                 POSTDEC0   0x000fed       data     extern C:\MCC18\src\extended\proc\p18F45J10.asm
                 POSTINC0   0x000fee       data     extern C:\MCC18\src\extended\proc\p18F45J10.asm
                    INDF0   0x000fef       data     extern C:\MCC18\src\extended\proc\p18F45J10.asm
                  INTCON3   0x000ff0       data     extern C:\MCC18\src\extended\proc\p18F45J10.asm
              INTCON3bits   0x000ff0       data     extern C:\MCC18\src\extended\proc\p18F45J10.asm
                  INTCON2   0x000ff1       data     extern C:\MCC18\src\extended\proc\p18F45J10.asm
              INTCON2bits   0x000ff1       data     extern C:\MCC18\src\extended\proc\p18F45J10.asm
                   INTCON   0x000ff2       data     extern C:\MCC18\src\extended\proc\p18F45J10.asm
               INTCONbits   0x000ff2       data     extern C:\MCC18\src\extended\proc\p18F45J10.asm
                     PROD   0x000ff3       data     extern C:\MCC18\src\extended\proc\p18F45J10.asm
                    PRODL   0x000ff3       data     extern C:\MCC18\src\extended\proc\p18F45J10.asm
                    PRODH   0x000ff4       data     extern C:\MCC18\src\extended\proc\p18F45J10.asm
                   TABLAT   0x000ff5       data     extern C:\MCC18\src\extended\proc\p18F45J10.asm
                   TBLPTR   0x000ff6       data     extern C:\MCC18\src\extended\proc\p18F45J10.asm
                  TBLPTRL   0x000ff6       data     extern C:\MCC18\src\extended\proc\p18F45J10.asm
                  TBLPTRH   0x000ff7       data     extern C:\MCC18\src\extended\proc\p18F45J10.asm
                  TBLPTRU   0x000ff8       data     extern C:\MCC18\src\extended\proc\p18F45J10.asm
                       PC   0x000ff9       data     extern C:\MCC18\src\extended\proc\p18F45J10.asm
                      PCL   0x000ff9       data     extern C:\MCC18\src\extended\proc\p18F45J10.asm
                   PCLATH   0x000ffa       data     extern C:\MCC18\src\extended\proc\p18F45J10.asm
                   PCLATU   0x000ffb       data     extern C:\MCC18\src\extended\proc\p18F45J10.asm
               STKPTRbits   0x000ffc       data     extern C:\MCC18\src\extended\proc\p18F45J10.asm
                   STKPTR   0x000ffc       data     extern C:\MCC18\src\extended\proc\p18F45J10.asm
                      TOS   0x000ffd       data     extern C:\MCC18\src\extended\proc\p18F45J10.asm
                     TOSL   0x000ffd       data     extern C:\MCC18\src\extended\proc\p18F45J10.asm
                     TOSH   0x000ffe       data     extern C:\MCC18\src\extended\proc\p18F45J10.asm
                     TOSU   0x000fff       data     extern C:\MCC18\src\extended\proc\p18F45J10.asm


